:020000040800F2
:10000000680600208901000891010008930100089A
:100010009501000897010008990100080000000000
:100020000000000000000000000000009B0100082C
:100030009D010008000000009F010008A1010008C8
:10004000A3010008A3010008A3010008A301000800
:10005000A3010008A3010008A3010008A3010008F0
:10006000A3010008A3010008A3010008A3010008E0
:10007000A3010008A3010008A3010008A3010008D0
:10008000A3010008A301000845020008A30100081D
:10009000A3010008A3010008A3010008A3010008B0
:1000A000A3010008A3010008A3010008A3010008A0
:1000B000A3010008A301000800000000A30100083C
:1000C000A30100080000000000000000A3010008D8
:1000D00000000000A3010008A301000800000000C8
:1000E000A3010008A3010008A301000800F002F822
:1000F00000F03AF80AA090E8000C82448344AAF188
:100100000107DA4501D100F02FF8AFF2090EBAE885
:100110000F0013F0010F18BFFB1A43F0010318473B
:10012000580D0000780D0000103A24BF78C878C13F
:10013000FAD8520724BF30C830C144BF04680C60ED
:10014000704700000023002400250026103A28BF35
:1001500078C1FBD8520728BF30C148BF0B60704739
:100160001FB51FBD10B510BD00F031F81146FFF7E7
:10017000F7FF00F02AFE00F04FF803B4FFF7F2FF9C
:1001800003BC00F057F800000948804709480047C1
:10019000FEE7FEE7FEE7FEE7FEE7FEE7FEE7FEE737
:1001A000FEE7FEE704480549054A064B7047000094
:1001B000ED0B0008ED000008680000206806002034
:1001C000680200206802002070477047704775463B
:1001D00000F02CF8AE4605006946534620F00700B3
:1001E000854618B020B5FFF7DDFFBDE820404FF091
:1001F00000064FF000074FF000084FF0000B21F011
:100200000701AC46ACE8C009ACE8C009ACE8C009DD
:10021000ACE8C0098D46704710B50446AFF30080C6
:100220002046BDE81040FFF7A8BF00000048704717
:100230000400002001491820ABBEFEE726000200A2
:10024000704700000548006800F0020020B1034834
:100250004C300068024908607047000000240140EB
:100260000000002010B50446204600F031F8174881
:10027000046016483038006820F480701349303923
:1002800008600846006840F020000860081D00680B
:1002900020F40060091D08600846006840F0020074
:1002A00008600846006840F00100086008460068E1
:1002B00040F00100086012200121814042099200B3
:1002C00002F1E022C2F8001100BF10BD3424014049
:1002D00010B50446072C05DC04222146002000F05E
:1002E000DFFB12E0092C07DCA4F10800C1B20422F4
:1002F000012000F0D5FB08E00F2C06DCA4F10A0079
:10030000C1B20422022000F0CBFB10BD10B50446A0
:100310002046FFF7DDFF18480460174830380068B2
:1003200020F480701449303908600846006820F0D5
:1003300020000860081D006820F40060091D0860A6
:100340000846006820F0020008600846006840F097
:10035000010008600846006840F00100086000BF26
:1003600005483438006800F002000028F8D0024840
:100370001830006880B210BD342401400E488069F6
:1003800040F001000C4988610846806940F4007023
:1003900088610A48006840F00100084908600020B0
:1003A00000E0401C0528FCDB0448006820F0010048
:1003B0000249086070470000001002400824014014
:1003C000F0B502460D46002633463146072A1DDCAD
:1003D00014462246A606300E861C012707FA06F6AA
:1003E000471C4FF0010C0CFA07FC46EA0C060127EB
:1003F00087403E43C71C4FF0010C0CFA07FC46EA4D
:100400000C06834F3F6827EA06011EE0A2F10806AA
:10041000F4B2A606300E861C012707FA06F6471C22
:100420004FF0010C0CFA07FC46EA0C060127874046
:100430003E43C71C4FF0010C0CFA07FC46EA0C06C1
:10044000734F3F1D3F6827EA0603082D73D2DFE88C
:1004500005F0041D364F667E97B9072A0ADC861C14
:10046000002707FA06F60E43032787403E43684FEE
:100470003E600AE0861C002707FA06F61E430327A3
:1004800087403E43624F3F1D3E60BEE0072A0ADCC4
:10049000861C012707FA06F60E43032787403E43D2
:1004A0005B4F3E600AE0861C012707FA06F61E43F2
:1004B000032787403E43564F3F1D3E60A5E0072A75
:1004C0000ADC861C022707FA06F60E43032787403C
:1004D0003E434F4F3E600AE0861C022707FA06F6AD
:1004E0001E43032787403E43494F3F1D3E608CE03B
:1004F000072A09DC861C032707FA06F60E43874005
:100500003E43434F3E6009E0861C032707FA06F688
:100510001E4387403E433E4F3F1D3E6075E0072A25
:100520000ADC861C002707FA06F60E4387403E4386
:10053000374F3E600AE067E0861C002707FA06F6A0
:100540001E4387403E43324F3F1D3E605DE0072A19
:100550000ADC861C012707FA06F60E4300278740AF
:100560003E432B4F3E600AE0861C012707FA06F641
:100570001E43002787403E43254F3F1D3E6044E019
:10058000072A0ADC861C022707FA06F60E43002714
:1005900087403E431E4F3E600AE0861C022707FA52
:1005A00006F61E43002787403E43194F3F1D3E601D
:1005B000174E0C3637680126A640B743144E0C364A
:1005C000376022E0072A0ADC861C022707FA06F6B3
:1005D0000E43002787403E430D4F3E600AE0861CD5
:1005E000022707FA06F61E43002787403E43084FBE
:1005F0003F1D3E60064E0C3636680127A7403E433D
:10060000034F0C373E6000E000BF00BFF0BD0000AC
:1006100000080140F0B502460D460026334631463B
:10062000072A1DDC14462246A606300E861C01272A
:1006300007FA06F6471C4FF0010C0CFA07FC46EAD5
:100640000C06012787403E43C71C4FF0010C0CFAF3
:1006500007FC46EA0C06834F3F6827EA06011EE0C6
:10066000A2F10806F4B2A606300E861C012707FA8E
:1006700006F6471C4FF0010C0CFA07FC46EA0C0684
:10068000012787403E43C71C4FF0010C0CFA07FCC2
:1006900046EA0C06734F3F1D3F6827EA0603082D04
:1006A00073D2DFE805F0041D364F667E97B9072A3E
:1006B0000ADC861C002707FA06F60E43032787404C
:1006C0003E43684F3E600AE0861C002707FA06F6A4
:1006D0001E43032787403E43624F3F1D3E60BEE0FE
:1006E000072A0ADC861C012707FA06F60E430327B1
:1006F00087403E435B4F3E600AE0861C012707FAB5
:1007000006F61E43032787403E43564F3F1D3E607B
:10071000A5E0072A0ADC861C022707FA06F60E4324
:10072000032787403E434F4F3E600AE0861C022766
:1007300007FA06F61E43032787403E43494F3F1DF5
:100740003E608CE0072A09DC861C032707FA06F6C0
:100750000E4387403E43434F3E6009E0861C03271B
:1007600007FA06F61E4387403E433E4F3F1D3E605C
:1007700075E0072A0ADC861C002707FA06F60E43F6
:1007800087403E43374F3E600AE067E0861C002703
:1007900007FA06F61E4387403E43324F3F1D3E6038
:1007A0005DE0072A0ADC861C012707FA06F60E43DD
:1007B000002787403E432B4F3E600AE0861C0127FE
:1007C00007FA06F61E43002787403E43254F3F1D8C
:1007D0003E6044E0072A0ADC861C022707FA06F678
:1007E0000E43002787403E431E4F3E600AE0861CB2
:1007F000022707FA06F61E43002787403E43194F9B
:100800003F1D3E60174E0C3637680126A640B743A1
:10081000144E0C36376022E0072A0ADC861C0227B9
:1008200007FA06F60E43002787403E430D4F3E6011
:100830000AE0861C022707FA06F61E4300278740B7
:100840003E43084F3F1D3E60064E0C36366801277A
:10085000A7403E43034F0C373E6000E000BF00BF9F
:10086000F0BD0000000C0140F0B502460D46002628
:1008700033463146072A1DDC14462246A606300EB2
:10088000861C012707FA06F6471C4FF0010C0CFAEC
:1008900007FC46EA0C06012787403E43C71C4FF081
:1008A000010C0CFA07FC46EA0C067C4F3F6827EA6D
:1008B00006011DE0A2F10806F4B2A606300E861C61
:1008C000012707FA06F6471C4FF0010C0CFA07FC4B
:1008D00046EA0C06012787403E43C71C4FF0010C37
:1008E0000CFA07FC46EA0C066C4F7F6827EA060301
:1008F000082D6FD2DFE805F0041C344C627991B00A
:10090000072A0ADC861C002707FA06F60E4303278F
:1009100087403E43614F3E6009E0861C002707FA8E
:1009200006F61E43032787403E435C4F7E60B3E0DC
:10093000072A0ADC861C012707FA06F60E4303275E
:1009400087403E43554F3E6009E0861C012707FA69
:1009500006F61E43032787403E43504F7E609BE0D0
:10096000072A0ADC861C022707FA06F60E4303272D
:1009700087403E43494F3E6009E0861C022707FA44
:1009800006F61E43032787403E43444F7E6083E0C4
:10099000072A09DC861C032707FA06F60E43874060
:1009A0003E433E4F3E6008E0861C032707FA06F6EA
:1009B0001E4387403E43394F7E606DE0072A0ADCC4
:1009C000861C002707FA06F60E4387403E43334F46
:1009D0003E6009E05FE0861C002707FA06F61E432A
:1009E00087403E432D4F7E6056E0072A0ADC861C76
:1009F000012707FA06F60E43002787403E43274F9C
:100A00003E6009E0861C012707FA06F61E43002710
:100A100087403E43214F7E603EE0072A0ADC861C69
:100A2000022707FA06F60E43002787403E431B4F76
:100A30003E6009E0861C022707FA06F61E430027DF
:100A400087403E43154F7E60144EF7680126A6404E
:100A5000B743124EF7601FE0072A0ADC861C022704
:100A600007FA06F60E43002787403E430B4F3E60D1
:100A700009E0861C022707FA06F61E430027874076
:100A80003E43064F7E60054EF6680127A7403E4371
:100A9000024FFE6000E000BF00BFF0BD001001404B
:100AA00070B504460D4616461548806940F00100B1
:100AB000134988614CB90846806940F00400886198
:100AC00031462846FFF77CFC18E0012C0AD10C487F
:100AD000806940F008000A49886131462846FFF7DE
:100AE00099FD0BE0022C09D10548806940F0100007
:100AF0000349886131462846FFF7B6FE70BD000005
:100B00000010024010B500F001F810BD0CB5002037
:100B1000019000903348006840F48030314908600B
:100B200000BF3048006800F4003000900198401C7D
:100B30000190009818B90198B0F5A06FF1D129483B
:100B4000006800F4003010B10120009001E00020A6
:100B500000900098012843D12348006840F010001D
:100B6000214908600846006820F003000860084634
:100B7000006840F0020008601A484068194948605F
:100B80000846406848600846406840F48060486015
:100B90000846406820F47C1048600846406840F4ED
:100BA000E81048600846006840F08070086000BFA8
:100BB0000C48006800F000700028F9D0094840682F
:100BC00020F00300074948600846406840F00200F2
:100BD000486000BF0348406800F00C000828F9D1C5
:100BE0000CBD0000001002400020024010B5134868
:100BF000006840F00100114908600846406810494B
:100C000008400E494860084600680E4908400B49F4
:100C100008600846006820F48020086008464068A4
:100C200020F4FE0048604FF41F008860FFF76AFF61
:100C30004FF000600449086010BD00000010024041
:100C40000000FFF8FFFFF6FE08ED00E0002108E0DD
:100C5000002200E0521C00EB80035B009342F9DCB1
:100C6000491C6429F4DB704700B5022000F05AF8F3
:100C7000282000F057F8062000F054F80E2000F06D
:100C800051F8802000F04EF800BD0000F0B503469A
:100C90000C461546022D01DB242D03DD00202070BB
:100CA0002046F0BD21460A4600BF1E4693FBF5F3E1
:100CB00003FB15602330DFF834C01CF8000001F896
:100CC000010B002BF1D1002E02DA2D2001F8010BCF
:100CD000002001F8010905E00F78107801F80109FA
:100CE00002F8017B8A42F7D32046DAE7300E00088B
:100CF00000B50F2000F016F800BD10B500F077F831
:100D0000FFF7B2FFFFF7F4FF10BD3FB505460C46F5
:100D1000224669462846FFF7B9FF684600F04AF8C0
:100D20003FBD000010B5044601200F4948613C203A
:100D3000486104F0F0008010086102200861012081
:100D4000FFF784FF0220084948613C2048612007E2
:100D5000800E0861022008610120FFF777FF022062
:100D60000149486110BD00000010014010B5044663
:100D700001200F4908613C20486104F0F000801018
:100D80000861022008610120FFF760FF0220084986
:100D900048613C2048612007800E086102200861FC
:100DA0000120FFF753FF02200149486110BD0000F8
:100DB0000010014010B5044603E014F8010BFFF7E2
:100DC000D5FF20780028F8D110BDFFF7D7FAFFF73C
:100DD00094FFFFF78DFF0020FFF744FA06E008209C
:100DE000FFF794FA04460A21FFF78FFFF7E710B5E3
:100DF000002211460220FFF753FE002201210220AB
:100E0000FFF74EFE002202210846FFF749FE0022AE
:100E100003210220FFF744FE002204210220FFF7F5
:100E20003FFE002205210220FFF73AFE10BD000020
:100E30007A797877767574737271706F6E6D6C6B8A
:100E40006A69686766656463626139383736353464
:100E500033323130313233343536373839616263C9
:100E60006465666768696A6B6C6D6E6F70717273CA
:100E70007475767778797A00980E00080000002063
:100E800004000000280100089C0E00080400002057
:0C0E90006406000044010008010000009E
:040000050800018965
:00000001FF
