:020000040800F2
:10000000600600206D0100087501000877010008F6
:10001000790100087B0100087D0100080000000054
:100020000000000000000000000000007F01000848
:10003000810100080000000083010008850100081C
:100040008701000887010008870100088701000870
:10005000870100088701000829020008ED02000856
:10006000250300085D0300089503000887010008C8
:100070008701000887010008870100088701000840
:100080008701000887010008870100088701000830
:10009000870100088701000887010008CD030008D8
:1000A0008701000887010008870100088701000810
:1000B0008701000887010008000000008701000890
:1000C0008701000800000000000000008701000810
:1000D0000000000087010008870100080000000000
:1000E00061020008870100088701000800F002F89B
:1000F00000F02CF80AA090E8000C82448344AAF196
:100100000107DA4501D100F021F8AFF2090EBAE893
:100110000F0013F0010F18BFFB1A43F0010318473B
:10012000A00E0000B00E00000023002400250026D1
:10013000103A28BF78C1FBD8520728BF30C148BF4A
:100140000B6070471FB51FBD10B510BD00F031F832
:100150001146FFF7F7FF00F01DFF00F04FF803B462
:10016000FFF7F2FF03BC00F057F800000948804792
:1001700009480047FEE7FEE7FEE7FEE7FEE7FEE789
:10018000FEE7FEE7FEE7FEE704480549054A064BA1
:1001900070470000B50D0008ED0000086000002069
:1001A0006006002060020020600200207047704757
:1001B0007047754600F02CF8AE4605006946534678
:1001C00020F00700854618B020B5FFF7DDFFBDE839
:1001D00020404FF000064FF000074FF000084FF0AE
:1001E000000B21F00701AC46ACE8C009ACE8C0093F
:1001F000ACE8C009ACE8C0098D46704710B50446AC
:10020000AFF300802046BDE81040FFF7A8BF000014
:10021000004870470000002001491820ABBEFEE7EF
:10022000260002007047000010B5012200210220C4
:1002300000F0AEFC28B901220021022000F0F8FCF9
:1002400004E000221146022000F0F2FC034800689E
:1002500040F001000149086010BD00001404014095
:1002600010B500242048006800F4806008B10A241A
:1002700021E01D48006800F4006008B10B241AE07A
:100280001948006800F4805008B10C2413E01648A7
:10029000006800F4005008B10D240CE0124800681A
:1002A00000F4804008B10E2405E00F48006800F417
:1002B000004000B10F2401222146022000F068FC1A
:1002C00028B901222146022000F0B2FC04E00022FD
:1002D0002146022000F0ACFC034800680121A14047
:1002E00008430149086010BD1404014010B5012203
:1002F0001146022000F04CFC28B9012211460220D0
:1003000000F096FC04E000220121022000F090FCA5
:100310000348006840F002000149086010BD000079
:100320001404014010B501220221084600F030FCFF
:1003300028B901220221084600F07AFC04E00022DC
:100340000221084600F074FC0348006840F00400F5
:100350000149086010BD00001404014010B50122DD
:100360000321022000F014FC28B9012203210220FD
:1003700000F05EFC04E000220321022000F058FCA3
:100380000348006840F008000149086010BD000003
:100390001404014010B501220421022000F0F8FBF2
:1003A00028B901220421022000F042FC04E00022CE
:1003B0000421022000F03CFC0348006840F01000DB
:1003C0000149086010BD00001404014010B500246C
:1003D0001D48006800F0200008B105241AE01A4802
:1003E000006800F0400008B1062413E016480068D9
:1003F00000F0800008B107240CE01348006800F406
:10040000807008B1082405E00F48006800F400700F
:1004100000B1092401222146022000F0B9FB28B9CD
:1004200001222146022000F003FC04E000222146C4
:10043000022000F0FDFB044800680121A1400843B0
:100440000149086010BD000014040140F0B50246E7
:100450000D46002633463146072A1DDC1446224647
:10046000A606300E861C012707FA06F6471C4FF039
:10047000010C0CFA07FC46EA0C06012787403E43B4
:10048000C71C4FF0010C0CFA07FC46EA0C06834F20
:100490003F6827EA06011EE0A2F10806F4B2A606AC
:1004A000300E861C012707FA06F6471C4FF0010C98
:1004B0000CFA07FC46EA0C06012787403E43C71C9E
:1004C0004FF0010C0CFA07FC46EA0C06734F3F1D77
:1004D0003F6827EA0603082D73D2DFE805F0041D04
:1004E000364F667E97B9072A0ADC861C002707FA72
:1004F00006F60E43032787403E43684F3E600AE0FE
:10050000861C002707FA06F61E43032787403E4352
:10051000624F3F1D3E60BEE0072A0ADC861C0127B1
:1005200007FA06F60E43032787403E435B4F3E60C3
:100530000AE0861C012707FA06F61E4303278740B8
:100540003E43564F3F1D3E60A5E0072A0ADC861C4D
:10055000022707FA06F60E43032787403E434F4F14
:100560003E600AE0861C022707FA06F61E430327B0
:1005700087403E43494F3F1D3E608CE0072A09DC1F
:10058000861C032707FA06F60E4387403E43434F77
:100590003E6009E0861C032707FA06F61E438740E3
:1005A0003E433E4F3F1D3E6075E0072A0ADC861C35
:1005B000002707FA06F60E4387403E43374F3E605A
:1005C0000AE067E0861C002707FA06F61E4387400C
:1005D0003E43324F3F1D3E605DE0072A0ADC861C29
:1005E000012707FA06F60E43002787403E432B4FAC
:1005F0003E600AE0861C012707FA06F61E43002724
:1006000087403E43254F3F1D3E6044E0072A0ADCF9
:10061000861C022707FA06F60E43002787403E4352
:100620001E4F3E600AE0861C022707FA06F61E43AC
:10063000002787403E43194F3F1D3E60174E0C3642
:1006400037680126A640B743144E0C36376022E0C7
:10065000072A0ADC861C022707FA06F60E43002743
:1006600087403E430D4F3E600AE0861C022707FA92
:1006700006F61E43002787403E43084F3F1D3E605D
:10068000064E0C3636680127A7403E43034F0C3711
:100690003E6000E000BF00BFF0BD00000008014068
:1006A000F0B502460D46002633463146072A1DDCCA
:1006B00014462246A606300E861C012707FA06F6C7
:1006C000471C4FF0010C0CFA07FC46EA0C06012708
:1006D00087403E43C71C4FF0010C0CFA07FC46EA6A
:1006E0000C06834F3F6827EA06011EE0A2F10806C8
:1006F000F4B2A606300E861C012707FA06F6471C40
:100700004FF0010C0CFA07FC46EA0C060127874063
:100710003E43C71C4FF0010C0CFA07FC46EA0C06DE
:10072000734F3F1D3F6827EA0603082D73D2DFE8A9
:1007300005F0041D364F667E97B9072A0ADC861C31
:10074000002707FA06F60E43032787403E43684F0B
:100750003E600AE0861C002707FA06F61E430327C0
:1007600087403E43624F3F1D3E60BEE0072A0ADCE1
:10077000861C012707FA06F60E43032787403E43EF
:100780005B4F3E600AE0861C012707FA06F61E430F
:10079000032787403E43564F3F1D3E60A5E0072A92
:1007A0000ADC861C022707FA06F60E430327874059
:1007B0003E434F4F3E600AE0861C022707FA06F6CA
:1007C0001E43032787403E43494F3F1D3E608CE058
:1007D000072A09DC861C032707FA06F60E43874022
:1007E0003E43434F3E6009E0861C032707FA06F6A6
:1007F0001E4387403E433E4F3F1D3E6075E0072A43
:100800000ADC861C002707FA06F60E4387403E43A3
:10081000374F3E600AE067E0861C002707FA06F6BD
:100820001E4387403E43324F3F1D3E605DE0072A36
:100830000ADC861C012707FA06F60E4300278740CC
:100840003E432B4F3E600AE0861C012707FA06F65E
:100850001E43002787403E43254F3F1D3E6044E036
:10086000072A0ADC861C022707FA06F60E43002731
:1008700087403E431E4F3E600AE0861C022707FA6F
:1008800006F61E43002787403E43194F3F1D3E603A
:10089000174E0C3637680126A640B743144E0C3667
:1008A000376022E0072A0ADC861C022707FA06F6D0
:1008B0000E43002787403E430D4F3E600AE0861CF2
:1008C000022707FA06F61E43002787403E43084FDB
:1008D0003F1D3E60064E0C3636680127A7403E435A
:1008E000034F0C373E6000E000BF00BFF0BD0000CA
:1008F000000C0140F0B502460D4600263346314655
:10090000072A1DDC14462246A606300E861C012747
:1009100007FA06F6471C4FF0010C0CFA07FC46EAF2
:100920000C06012787403E43C71C4FF0010C0CFA10
:1009300007FC46EA0C067C4F3F6827EA06011DE0EB
:10094000A2F10806F4B2A606300E861C012707FAAB
:1009500006F6471C4FF0010C0CFA07FC46EA0C06A1
:10096000012787403E43C71C4FF0010C0CFA07FCDF
:1009700046EA0C066C4F7F6827EA0603082D6FD203
:10098000DFE805F0041C344C627991B0072A0ADCD8
:10099000861C002707FA06F60E43032787403E43CE
:1009A000614F3E6009E0861C002707FA06F61E43E9
:1009B000032787403E435C4F7E60B3E0072A0ADC92
:1009C000861C012707FA06F60E43032787403E439D
:1009D000554F3E6009E0861C012707FA06F61E43C4
:1009E000032787403E43504F7E609BE0072A0ADC86
:1009F000861C022707FA06F60E43032787403E436C
:100A0000494F3E6009E0861C022707FA06F61E439E
:100A1000032787403E43444F7E6083E0072A09DC7A
:100A2000861C032707FA06F60E4387403E433E4FD7
:100A30003E6008E0861C032707FA06F61E4387403F
:100A40003E43394F7E606DE0072A0ADC861C002792
:100A500007FA06F60E4387403E43334F3E6009E0F7
:100A60005FE0861C002707FA06F61E4387403E43D8
:100A70002D4F7E6056E0072A0ADC861C012707FA04
:100A800006F60E43002787403E43274F3E6009E0AD
:100A9000861C012707FA06F61E43002787403E43BF
:100AA000214F7E603EE0072A0ADC861C022707FAF7
:100AB00006F60E43002787403E431B4F3E6009E089
:100AC000861C022707FA06F61E43002787403E438E
:100AD000154F7E60144EF7680126A640B743124EAC
:100AE000F7601FE0072A0ADC861C022707FA06F6D1
:100AF0000E43002787403E430B4F3E6009E0861CB3
:100B0000022707FA06F61E43002787403E43064F9A
:100B10007E60054EF6680127A7403E43024FFE6007
:100B200000E000BF00BFF0BD0010014070B50446FA
:100B30000D4616461548806940F00100134988614A
:100B40004CB90846806940F0040088613146284667
:100B5000FFF77CFC18E0012C0AD10C48806940F0BA
:100B600008000A49886131462846FFF799FD0BE0E5
:100B7000022C09D10548806940F0100003498861C2
:100B800031462846FFF7B6FE70BD00000010024057
:100B900010B50346ABB94AB92248006801248C401D
:100BA000204008B1012010BD0020FCE71D48001DB9
:100BB000006801248C40204008B10120F3E70020A8
:100BC000F1E7012B15D14AB9174804680120884084
:100BD00004400CB10120E6E70020E4E71248001DC4
:100BE000006801248C40204008B10120DBE7002090
:100BF000D9E7022B14D14AB90C48806801248C40F3
:100C0000204008B10120CEE70020CCE70748C468A7
:100C10000120884004400CB10120C4E70020C2E755
:100C20000020C0E708080140080C01400010014006
:100C300010B590B91D4B1B6802FA01F423431B4CFD
:100C40002360231D1C680AB9012300E000238B40A8
:100C50001C43164B1B1D1C6026E0012811D1144BB0
:100C60001B6902FA01F42343114C236123465C699A
:100C70000AB9012300E000238B401C430C4B5C614C
:100C800012E0022810D10A4B1B6902FA01F4234337
:100C9000074C236123465C690AB9012300E0002365
:100CA0008B401C43024B5C6110BD000010080140EA
:100CB0000010014000F01F02012191404209920002
:100CC00002F1E022C2F80011704710B500F002F8FE
:100CD00010BD00000CB50020019000903348006862
:100CE00040F480303149086000BF3048006800F4AB
:100CF000003000900198401C0190009818B90198AC
:100D0000B0F5A06FF1D12948006800F4003010B1AF
:100D10000120009001E0002000900098012843D1BC
:100D20002348006840F01000214908600846006828
:100D300020F0030008600846006840F002000860E8
:100D40001A484068194948600846406848600846A3
:100D5000406840F4806048600846406820F47C1099
:100D600048600846406840F4E8104860084600685B
:100D700040F08070086000BF0C48006800F0007010
:100D80000028F9D00948406820F00300074948606E
:100D90000846406840F00200486000BF03484068D1
:100DA00000F00C000828F9D10CBD00000010024032
:100DB0000020024010B51348006840F001001149BE
:100DC000086008464068104908400E4948600846D7
:100DD00000680E4908400B4908600846006820F486
:100DE000802008600846406820F4FE0048604FF408
:100DF0001F008860FFF769FF4FF00060044908603A
:100E000010BD0000001002400000FFF8FFFFF6FEDA
:100E100008ED00E02DE9F04705460C469146052215
:100E200021462846FFF782FE00260027B0462CB157
:100E3000042C03D0082C01D00C2C04D14FF6F076F2
:100E40004FF0000825E0012C05D0052C03D0092C1B
:100E500001D00D2C04D14FF60F764FF0040818E0A6
:100E6000022C05D0062C03D00A2C01D00E2C04D164
:100E70004FF2FF064FF008080BE0032C05D0072CBB
:100E800003D00B2C01D00F2C03D140F6FF764FF08E
:100E90000C080DB9002706E0012D01D1012702E061
:100EA000022D00D10227032C08DC3848806830402E
:100EB00007FA08F10843354988601FE0072C08DC71
:100EC0003248C068304007FA08F108432F49C8602B
:100ED00014E00B2C08DC2D480069304007FA08F1BB
:100EE00008432A49086109E00F2C07DC27484069BC
:100EF000304007FA08F1084324494861B9F1000F6E
:100F000007D1234800680121A14008432049086017
:100F100008E01F48001D01680120A04001431C4853
:100F2000001D01601A48083801680120A0400143F3
:100F30001748083801601CB90620FFF7BBFE22E005
:100F4000012C03D10720FFF7B5FE1CE0022C03D1D2
:100F50000820FFF7AFFE16E0032C03D10920FFF7AE
:100F6000A9FE10E0042C03D10A20FFF7A3FE0AE03B
:100F7000092C03DC1720FFF79DFE04E00F2C02DC98
:100F80002820FFF797FEBDE8F08700000000014031
:100F90000804014000240AE0E1B200220220FFF729
:100FA000C5FDE1B200220220FFF742FE641C0F2CB7
:100FB000F2DB002207211046FFF72CFF00BFFEE7FF
:100FC000D00F000800000020600600002801000883
:040000050800016D81
:00000001FF
